:020000040800F2
:100000000050002099390008A1040008A504000848
:10001000A9040008AD040008B104000800000000B5
:10002000000000000000000000000000B50400080F
:10003000B904000800000000BD040008C104000865
:10004000E1390008E1390008E1390008E139000828
:10005000E1390008E1390008E1390008E139000818
:10006000E1390008E1390008E1390008E139000808
:10007000E1390008E1390008E1390008E1390008F8
:10008000E1390008E1390008E1390008E1390008E8
:10009000C5040008E1390008E1390008E139000829
:1000A000E1390008E1390008E1390008E1390008C8
:1000B000E1390008E1390008E1390008E1390008B8
:1000C000E1390008E1390008E1390008E1390008A8
:1000D000E1390008E1390008E1390008E139000898
:1000E000E1390008E1390008E139000800000000AA
:1000F0000000000000000000000000000000000000
:0C01000000000000000000005FF808F1A3
:10010C0010B5054C237833B9044B13B10448AFF345
:10011C0000800123237010BD680200200000000045
:10012C00F839000808B5034B1BB103490348AFF37A
:10013C00008008BD000000006C020020F8390008A7
:10014C0070B500250C4E0D4CA41BA410A54209D172
:10015C0003F04CFC00250A4E0A4CA41BA410A5422B
:10016C0005D170BD56F8253098470135EEE756F8A5
:10017C00253098470135F2E7B83A0008B83A00083C
:10018C00B83A0008BC3A000830B585B002F062FFFE
:10019C004FF48055012003230222094C6946CDE916
:1001AC0000502046CDE9022301F002FE29462046EC
:1001BC00002201F0EDFE02F04DFF05B030BD00BF96
:1001CC000008014030B5012200244FF48033022591
:1001DC004FF4E01195B00AA80A920E920B93129369
:1001EC0013910C94059401940D94CDE90F44CDE931
:1001FC000644CDE90844CDE902440494119502F07B
:10020C005DFC0F224FF48063294605A805920893E4
:10021C0006950794099402F039FE102301A8049462
:10022C00019302F01DFF15B030BD00BF2DE9F04762
:10023C00814E824F336888B001337A6800F0E480D5
:10024C0000240134A4B256F8243006EB84080133A0
:10025C00F7D104F18043013B013206EB830907D04F
:10026C00002C40F0D88072B6DFF8F0D17B6898474C
:10027C0001F04AFBFFF7A6FF714B724D9A6942F0F1
:10028C0020029A619A6902F020020292029A9A69FB
:10029C0042F004029A619B6903F004030393039BED
:1002AC00FFF772FF00F036F92B882CBB42F20117D6
:1002BC00654C664EBB4200F08380B3F5E64F76D0BA
:1002CC0047F2013123F480528B4292B205D0B3F540
:1002DC00C64F02D0B2F5024FECD102F0BBFEBFF319
:1002EC004F8F5B495B4BCA6802F4E0621343CB60EF
:1002FC00BFF34F8F00BFFDE7FF2C2AD8524C42F2C0
:10030C00011A524E17E0B3F5E64F07D101213046E2
:10031C0000F086FC2B8801339BB22B8047F2013115
:10032C0023F480528B4292B2D7D0B3F5C64FD4D0BF
:10033C00B2F5024FD1D05345E5D102F08BFE2368C4
:10034C00BB4247D072B6DFF814D15B6898472B8854
:10035C00D9E742F2011A4FF000083B4CDFF8EC9061
:10036C0017E0B3F5E64F07D10121484600F058FCE1
:10037C002B8801339BB22B8047F2013123F480523E
:10038C008B4292B2A9D0B3F5C64FA6D0B2F5024FAC
:10039C00A3D05345E5D102F05DFE2368BB4222D0C9
:1003AC0072B6DFF8B8D05B6898472B88D9E7012183
:1003BC00304600F035FC2B8801339BB22B807FE755
:1003CC0002F048FE236872B6DFF890D05B6898475D
:1003DC002B8872E70023D9F800204146022001F057
:1003EC0023FB2368AEE701F003FC012301A904A859
:1003FC00CDE90663CDF80480CDF8108001F072FCD5
:10040C0001F00AFC2368CBE7013210D0B04600247F
:10041C00A6F1040927E7012C3FF42AAF0E4956F840
:10042C00232051F823309A427FF422AF1BE7A6F128
:10043C000409B04600241BE70040000800440008F3
:10044C000010024084020020D4060020283A000844
:10045C0000ED00E00400FA05FC3F0008005000200D
:10046C00704700BF0A4B82B09A6942F001029A6150
:10047C009A6902F001020092009ADA6942F0805205
:10048C00DA61DB6903F080530193019B02B0704782
:10049C0000100240704700BFFEE700BFFEE700BF40
:1004AC00FEE700BFFEE700BF704700BF704700BF0C
:1004BC00704700BF01F03ABA014801F03DBF00BFE0
:1004CC00A80E002030B44FF41F054FF000640E4B03
:1004DC000E4A19680E4841F00101196059680A402A
:1004EC005A601A6822F0847222F480321A601A68F8
:1004FC0022F480221A605A6822F4FE025A609D602F
:10050C00846030BC704700BF001002400000FFF850
:10051C0000ED00E010B5094C00222046084900F01F
:10052C0017FD2046074900F029FD2046064901F039
:10053C0083F92046BDE8104000F028BDAC04002033
:10054C003001002024020020080100200020704708
:10055C000020704710B5064C00222046054901F0DA
:10056C0073F92046044901F077F9002010BD00BF53
:10057C00AC040020C00A0020D806002010B5054CA1
:10058C000A460146204601F05FF92046BDE81040BE
:10059C0001F068B9AC0400202DE9F04F8846C14E3B
:1005AC00014689B00446304601F056F9D8F80020CF
:1005BC00BD4D012A54D02B88B3F5445F00F09C81CB
:1005CC001FD943F202118B4200F00C81C0F0EA807B
:1005DC00B3F5864F00F0B681B3F5C64F0AD1D6F805
:1005EC001832D3F81432002B00F0DD814FF4C643DF
:1005FC0001332B80AB4801F04DF9002009B0BDE868
:10060C00F08FB3F5885F00F0778140F2998041F26A
:10061C0001118B4240F06C812778022AD6F818829F
:10062C0000F0B981D8F81432002B00F0D6810023E9
:10063C009E4A01379E49FFB2177009683A469D4899
:10064C002B8003F0C8F9D8F81432002BD2D17A1CC5
:10065C009949944801F0F8F8924801F003F9C9E778
:10066C0027782B887F2F00F0B280B3F5445F00F021
:10067C008B807BD943F202118B4200F0B380C0F027
:10068C009280B3F5864FA7D1884B012A1F70019336
:10069C00217840F29380894B02F1FF3ABAF1010FB5
:1006AC004FEA932800F2F48001234FF0000E9C4691
:1006BC0000E0494614F80C00013381EA000C9A4220
:1006CC005FFA8CF99C46F4D8FF2F00F09981884290
:1006DC0074D1BEF1000F71D1DDF804907746A046BD
:1006EC000DF10C0A0DF1100B019508E001F094FAD4
:1006FC0099F80020A8EB04039A42C0F2C1800125AE
:10070C0001F076FA18F8013F514603F500339B02CD
:10071C005846CDE90377CDE9063501F0E3FA002818
:10072C00E4D0D6F81832D3F81432002BDED12A4696
:10073C0063495C4801F088F85A4801F093F8D5E712
:10074C00002B7FF457AF022A00F0FE80D6F8183247
:10075C00D3F81432002B7FF44DAF01225849514885
:10076C0001F072F84F4801F07DF843E7B3F5885F6C
:10077C000AD040F20C8141F201118B423FF44DAF93
:10078C00B3F5045F7FF436AFD6F81862D6F814329E
:10079C00D3B901224A49434801F056F8414801F0C7
:1007AC0061F811E02778002243F202133F49013728
:1007BC000F706A802B801DE73C4B1F70D6F81832E7
:1007CC00D3F81432002BE4D000232B8012E7B3F5BE
:1007DC00864FF1D043F201118B42E4D043F2021167
:1007EC008B424ED1314BB5F802A093F80090019397
:1007FC00D145314F80F2E1802F4A09F1FF31531C72
:10080C009944C9B200E0194612F8010B80EA0103C1
:10081C009145DBB2F7D18842D0D1DFF89480294BD7
:10082C00D8F800209A42C9D301F0E2F90024019BC8
:10083C001B78A342A3EB040211DDD8F80010032AA5
:10084C00214440F3D6803A590023022001F0ECF801
:10085C00019B04341B78A342A3EB0402EDDC01F0F2
:10086C00DBF9D6F81832D3F81432002BACD10122B4
:10087C0015490C4800F0E8FF0A4800F0F3FFA3E725
:10088C00019DD6F81832D3F81432002B9CD1EEE728
:10089C00924528BF9246A1468B4601234FF0000E8D
:1008AC0015E000BFAC04002084020020D00600201C
:1008BC00D4060020050000200400002000440000A5
:1008CC00293A000800440008283A00088B4619F819
:1008DC00010F01334140804588BF4FF0010E534555
:1008EC00C9B29C46F2D39A423FF6E4AE5946EBE6C7
:1008FC00B3F5045F7FF47EAE2168052A08BAD6F8FA
:10090C00186221787FF442AF627894F802C0E778DD
:10091C0082EA0C027A4024794A4094427FF436AF42
:10092C00B649D6F8142201332B800860002A7FF4D4
:10093C0061AE0122B249B34800F086FFB14800F025
:10094C0091FF57E627789FE622786178D343DBB294
:10095C0099427FF4FBAE312A00F0338100F287809C
:10096C00022A00F0FB8000F2CF80002A00F0EA801F
:10097C00012A40F0BD80D6F81832D3F81432002B7F
:10098C007FF438AE0521A048FFF7F8FD32E6002BC6
:10099C003FF4DCAE2EE6FB4394F901205BB29A42A5
:1009AC007FF440AE43E601229549964800F04CFF97
:1009BC00944800F057FF2B881AE607EB0A002146F3
:1009CC0003F009F8D8F800309A441FFA8AFAD14596
:1009DC00A5F802A0BFF60EAE0EE701228B4989489E
:1009EC0000F032FF874800F03DFF2778D6F81882D8
:1009FC001DE63A5B0023012001F016F8023416E7DD
:100A0C006378002B7FF4DAAE01F0F2F8B8F17F0FC7
:100A1C003FF625AF08F50034DFF8E8917C4FA402CF
:100A2C000DF10C0A0DF1100B02E0BC423FF417AFB4
:100A3C0000234FF00108514658460694CDE9033384
:100A4C00CDF81C8001F04EF904F580640028ECD040
:100A5C00D6F81832D3F81432002BE6D142466B4943
:100A6C00484600F0F1FE484600F0FCFEDDE7732A34
:100A7C0000F09A8011D8432A00F08980632A37D17C
:100A8C00D6F81832D3F814321BB901215C48FFF7A1
:100A9C0075FD4FF4C6432B80ACE5822A6AD0922AAE
:100AAC0026D101F0A5F85B4B9B0A7F2B00F29680B8
:100ABC0001274FF0000803F50033DFF854919C0236
:100ACC000DF10C0A0DF1100B0123514658460694FA
:100ADC00CDE90388079301F005F904F5806400283B
:100AEC0018BF00274C45EFD101F096F8002F77D1B5
:100AFC00D6F81832D3F81432002B7FF47BAD0121D9
:100B0C004248FFF73BFD75E5112A0ED0212AEFD1A3
:100B1C00D6F81832D3F814321BB901213848FFF734
:100B2C002DFD4FF404532B8064E5D6F81832D3F81E
:100B3C0014321BB901213248FFF720FD4FF48853C2
:100B4C002B8057E5D6F81832D3F81432002B7FF4EB
:100B5C0051AD0F213048FFF711FD4BE5D6F8183297
:100B6C00D3F81432002B7FF445AD05212B48FFF749
:100B7C0005FD3FE5D6F81832D3F814321BB9012124
:100B8C001F48FFF7FBFC2B8801332B8032E5D6F88E
:100B9C001832D3F814321BB901211948FFF7EEFCB7
:100BAC004FF486432B8025E5D6F81832D3F814324F
:100BBC001BB901211248FFF7E1FC4FF4E6432B80EF
:100BCC0018E5D6F81832D3F814321BB901210C48A9
:100BDC00FFF7D4FC4FF444532B800BE501F01CF8C9
:100BEC00D6F81832D3F814321BB901210448FFF798
:100BFC00C5FC4FF412432B80FCE400BFD40600204C
:100C0C00283A0008AC0400203C3A0008293A0008B5
:100C1C0000000208004400002C3A0008443A000886
:100C2C0010B5094CD4F81832D3F814320BB101209A
:100C3C0010BD0A460146204600F006FE2046BDE8DF
:100C4C00104000F00FBE00BFAC04002002680E4B39
:100C5C009A4200D07047002203F5DA3310B5DC69F4
:100C6C0082B044F40004DC61DB69114603F4000338
:100C7C0001931420019B00F07DFE142002B0BDE80E
:100C8C00104000F0ADBE00BF005C004000F22C41F3
:100C9C00D0F85C0400F092B900EB4113D3F83C227D
:100CAC00D0F85C0400F0BAB900EB4113DA6BD0F861
:100CBC005C0400F0E9B900BFD0F85C0400F070BA35
:100CCC0010B504460121D0F85C0400F053FAD4F8B6
:100CDC005C04BDE8104000F02DBA00BF10B504460E
:100CEC00D0F85C0400F04AFAA36923B1024A1369F4
:100CFC0043F00603136110BD00ED00E0D0F85C0476
:100D0C0000F046BA70B504460820002202250321E3
:100D1C001C4B1D4EC3F85C44C3E90060C4F8203280
:100D2C001846C3E90251C3E906221A6201F034F9EC
:100D3C0008B1FFF795FB002218231146D4F82002C6
:100D4C0001F0A0FE582300228021D4F8200201F0EB
:100D5C0099FEC02300228121D4F8200201F092FEDA
:100D6C004FF4887300220121D4F8200201F08AFE8E
:100D7C00D4F820024FF480730022822101F082FE0D
:100D8C00002070BDA80E0020005C004008B5D0F813
:100D9C00200201F0B9FA032896BF024B0220185C1E
:100DAC0008BD00BF4C3A000810B51C46D0F8200214
:100DBC001346224601F09AFD032896BF014B0220F0
:100DCC00185C10BD4C3A000808B5D0F8200201F0B0
:100DDC00B1FD032896BF024B0220185C08BD00BF72
:100DEC004C3A000808B5D0F8200201F0FBFD0328AE
:100DFC0096BF024B0220185C08BD00BF4C3A00089D
:100E0C0008B5D0F8200201F019FE032896BF024B5A
:100E1C000220185C08BD00BF4C3A00080A06D0F846
:100E2C00203204D403EB411393F82A02704701F0EB
:100E3C007F0103EB411393F82A00704708B5D0F8F3
:100E4C00200201F03FFD032896BF024B0220185CE4
:100E5C0008BD00BF4C3A000808B5D0F8200201F0DC
:100E6C00ABFD032896BF024B0220185C08BD00BFE7
:100E7C004C3A000808B5D0F8200201F07DFD03289B
:100E8C0096BF024B0220185C08BD00BF4C3A00080C
:100E9C0008B5D0F8200201F087FD08BD0048704766
:100EAC0088020020704700BF704700BF1223014822
:100EBC000B80704718010020042301480B807047F9
:100ECC002C01002010B5044C0A460448214600F0C1
:100EDC0059FB204610BD00BF08130020603A0008E3
:100EEC0010B5044C0A460448214600F04BFB204642
:100EFC0010BD00BF08130020743A000810B5044C54
:100F0C000A460448214600F03DFB204610BD00BFB8
:100F1C00081300208C3A000810B5044C0A4604480B
:100F2C00214600F02FFB204610BD00BF0813002007
:100F3C009C3A000810B5044C0A460448214600F0BF
:100F4C0021FB204610BD00BF08130020A83A000862
:100F5C0088B108B5D0F8143213B10023C0F814329C
:100F6C0009B1C0F810120123027080F8FC31FFF7B0
:100F7C00C9FE002008BD0220704700BF19B1C0F89F
:100F8C001412002070470220704700BF08B5FFF70D
:100F9C00FDFE002008BD00BF08B5D0F814321BB10F
:100FAC001B68984700B908BD022008BD08B5D0F8E9
:100FBC0014325B689847002008BD00BF38B5044662
:100FCC0000F50275284600F0C9FA012094F80812C1
:100FDC00B4F80E2201F01F038342C4F8F401C4F8E4
:100FEC00F82115D00ED3022B06D001F0800120463B
:100FFC00FFF7F8FE002038BD2946204600F048FADD
:10100C00002038BD2946204600F0D8F8002038BD15
:10101C002946204600F01CFA002038BD10B50446C5
:10102C0031B91346D0F8F421032A0DD0002010BD9D
:10103C00D0F814329B69002BF8D090F8FC21032ACD
:10104C00F4D19847002010BDD0F80C11D0F8102125
:10105C0091420DD8D0F814321B6923B190F8FC21C1
:10106C00032A00D19847204600F0E2FA002010BD78
:10107C00891A8A4228BF0A46C0F80C1192B2194646
:10108C0000F0CEFAD2E700BF70B5044651B9134652
:10109C00D0F8F421022A16D094F80032012B0DD08E
:1010AC00002070BDD0F814325B69002BF8D090F89A
:1010BC00FC21032AF4D19847002070BD002384F84A
:1010CC000032002070BDD0E90762964219D88369BE
:1010DC00B3FBF2F502FB15350DB99A421FD9D4F8C2
:1010EC001432DB682BB194F8FC21032A01D1204681
:1010FC009847204600F0A8FA94F80032012BCFD183
:10110C00DCE7B21A0D46C261194692B200F070FAD1
:10111C002B462A4629462046FFF7ACFEBCE7D0F802
:10112C00F8219342DBD22A4600F062FAC4F8F85157
:10113C00EEE700BF38B500224025044611462B4689
:10114C00FFF732FE2B460022C4F8105120468021B6
:10115C00FFF72AFE0122D4F81832256284F8FC210C
:10116C002BB1D4F8143221795B68204698470020C3
:10117C0038BD00BF01740020704700BF0346042235
:10118C0090F8FC11002083F8FD1183F8FC217047C6
:10119C00034690F8FD21002083F8FC21704700BF26
:1011AC0090F8FC21032A01D00020704708B5D0F834
:1011BC001432DB6903B19847002008BD30B54B7879
:1011CC0083B00D460446092B0BD8DFE803F03245FB
:1011DC000A580A05650A7B158B8813B9CB88002B36
:1011EC007DD080212046FFF7FDFD20460021FFF732
:1011FC00F9FD002003B030BD8978944D0129297088
:10120C00EFD890F8FC31022B00F08080032BE8D152
:10121C00002900F01181416801292CD0C9B2FFF7D7
:10122C00C5FE297820466160FFF7B6FE022822D160
:10123C00D7E7012290F8FC310321023B9342D0D82E
:10124C00D0F80432C26003B1C160022204F10C0177
:10125C00204600F0BFF9CCE790F8FC31023B012BA3
:10126C00BFD84B88012BC4D10022D0F81432C0F85F
:10127C0004229B689847204600F0DAF9B9E74B88BE
:10128C00012BB6D1D0F81422C0F8043293689847D9
:10129C00204600F0CDF9ACE74A88130A013B062B37
:1012AC009FD801A151F823F0BF130008A713000821
:1012BC0095130008EF110008EF1100087F130008C8
:1012CC003F130008CA88012A8BD190F8FC31022BFD
:1012DC0028D0032B85D1011D00F07CF989E790F80B
:1012EC00FC31032B3FF47DAF8D7805F07F0580F842
:1012FC00FE512946FFF7A2FD204600F099F9002D7A
:10130C0000F08F80022384F8FC3172E70029B2D000
:10131C0001210323416080F8FC31FFF73DFE0228D8
:10132C00A9D15EE70023014641F8083F00F052F9CD
:10133C005FE7037C002B7FF454AFD0F814320DF12F
:10134C0006001B6B984707234370BDF80630002B33
:10135C003FF44FAFEA88002A3FF44BAF934228BFCB
:10136C00134601461A462046ADF8063000F032F915
:10137C003FE7037C002B7FF434AFD0F814320DF12F
:10138C0006005B6B9847E0E7D2B2052A3FF629AF1F
:10139C00DFE802F03F372F271F17027CD0F81432FA
:1013AC00002A42D19B6A0DF1060098470223437034
:1013BC00CBE7D0F810320DF106011B68007C984782
:1013CC00C3E7D0F810320DF106019B69007C9847F9
:1013DC00BBE7D0F810320DF106015B69007C984731
:1013EC00B3E7D0F810320DF106011B69007C984769
:1013FC00ABE7D0F810320DF10601DB68007C9847A2
:10140C00A3E7D0F810320DF106019B68007C9847D9
:10141C009BE7D0F810320DF106015B68007C984711
:10142C0093E7012384F8FC31E3E6DB6A0DF1060057
:10143C0098470223437088E70223416080F8FC310F
:10144C00FFF7B4FD204600F0F3F8D2E6A804002024
:10145C0038B590F8FC310446032B0BD10B790D46B3
:10146C00012B07D8D0F814329B689847EB8853B1FE
:10147C00002038BD8021FFF7B5FC20460021FFF786
:10148C00B1FC002038BD204600F0D2F8002038BD59
:10149C0038B50B78054603F06003202B05D1D0F846
:1014AC0014329B689847002038BD4B788A88012BF2
:1014BC000C46D1B231D014D3032BF4D190F8FC31BB
:1014CC00022B2ED0032B3CD163881BB94A0601D0CA
:1014DC00FFF788FCD5F8143221469B6828469847BC
:1014EC002BE090F8FC31022B1BD0032B29D101F0FF
:1014FC007F03120600EB03134CBF03F1140403F536
:10150C008274FFF78BFC003018BF0120214620604D
:10151C000222284600F05EF8C5E790F8FC31022B59
:10152C0004D14C06BFD0FFF75DFCBCE7032B08D100
:10153C006388002BB7D14B060CD1284600F078F805
:10154C00B1E780212846FFF74DFC28460021FFF724
:10155C0049FCA8E7FFF754FCBCE700BF0B7803700D
:10156C004B784370CA788B7803EB022343804A791B
:10157C000B7903EB02238380CA798B7903EB02236B
:10158C00C380704708B3037830B4FBB10446002322
:10159C0014F8015F0133DBB2002DF9D15B0002338B
:1015AC00DCB2032513800C704D7004785CB10223FF
:1015BC0000255A1CD2B2CC548D5410F8014F023372
:1015CC00DBB2002CF5D130BC7047704702242346A7
:1015DC00E7E700BF38B5134602250A46C0E90633D3
:1015EC00C0F8F4510021FFF737FC002038BD00BFD4
:1015FC0008B513460A460021FFF72EFC002008BD53
:10160C0038B5134603250A46C0F80831C0F80C312A
:10161C00C0F8F4510021FFF72DFC002038BD00BFAD
:10162C0008B513460A460021FFF724FC002008BD2C
:10163C0008B504220023C0F8F42119461A46FFF716
:10164C000BFC002008BD00BF08B505220023C0F824
:10165C00F42119461A46FFF70DFC002008BD00BF07
:10166C00D0F818321BB10020C3F8140270470220C6
:10167C00704700BFD0F81C3283B110B5D0F81842B7
:10168C0094F80002FF2807D09B6894F801222146A9
:10169C009847FF2384F80032002010BD00207047CB
:1016AC0043230380004870474C01002043230380F0
:1016BC000048704790010020432303800048704786
:1016CC00D40100200A230380004870471802002030
:1016DC0038B50446D0F81852FFF7DAFBD4F81832B4
:1016EC00C5F80C024BB1D4F81C3205F50371DB685C
:1016FC00D5F804029847002038BD022038BD00BF41
:10170C00F8B50B780C4613F060020CD0202A08D1E7
:10171C00CA8805464E787AB9D0F81C3230469B6898
:10172C0098470020F8BD4B780A2BFAD101220E49BC
:10173C00FFF750FF0020F8BD1B06D0F818720BD530
:10174C00D0F81C32394630469B689847E2883946B7
:10175C002846FFF73FFFE4E787F8006287F801228D
:10176C003946FFF74DFFDCE7A904002010B504460D
:10177C008121FFF729FB01212046FFF725FB20469D
:10178C008221FFF721FBD4F8183253B1D4F81C3264
:10179C005B689847D4F81802FFF784FB0023C4F861
:1017AC001832002010BD00BFF8B5037C044673BB93
:1017BC004FF4007302228121FFF7F6FA4FF4007305
:1017CC00022201212046FFF7EFFA0823032282218F
:1017DC002046FFF7E9FA4FF40770FFF75FFB054669
:1017EC00C4F8180230B30026D4F81C321B68984792
:1017FC00277CD5F80422C5F814622046C5F8186277
:10180C008FB140230121FFF735FB3046F8BD402353
:10181C0002228121FFF7C8FA40230222012120462F
:10182C00FFF7C2FAD1E74FF400730121FFF722FB57
:10183C003846F8BD0120F8BD19B1C0F81C120020C3
:10184C0070470220704700BFD0F818320020C3F850
:10185C000812C3F810227047D0F818320020C3F8D1
:10186C0004127047D0F818228AB110B5D2F814427D
:10187C000CB1012010BD0121B2F81032C2F81412C3
:10188C00D2F808228121FFF7E7FA204610BD02208A
:10189C00704700BFD0F818228AB110B5047CD2F87A
:1018AC0004222CB140230121FFF7E4FA002010BDE3
:1018BC004FF400730121FFF7DDFA204610BD022022
:1018CC00704700BF4FF47A7370B50D4D0D4A2978EF
:1018DC001268B3FBF1F30646B2FBF3F000F08CF8A0
:1018EC0008B90F2E01D9012070BD044602463146BD
:1018FC004FF0FF3000F03EF86E60204670BD00BF28
:10190C005C02002000000020074A08B51368032081
:10191C0043F01003136000F01BF80020FFF7D2FF18
:10192C00FEF7A0FD002008BD00200240034A044B36
:10193C0011681B780B441360704700BF081500201A
:10194C005C020020014B1868704700BF081500208E
:10195C004FF6FF01064A0002D36800F4E0600B402A
:10196C0043F0BF6343F400330343D360704700BFBD
:10197C0000ED00E0184B30B4DB68C3F30223C3F175
:10198C000705042D03F1040428BF0425062C19D9DE
:10199C004FF0FF34033B9C4022EA04044FF0FF322B
:1019AC00AA4021EA020101FA03F2224312010028A3
:1019BC00D2B20ADB00F1604000F5614080F80023F0
:1019CC0030BC704700242346E8E7044B00F00F00BE
:1019DC0003441A7630BC704700ED00E0FCEC00E0EC
:1019EC00012300F01F01034A40098B4042F82030CC
:1019FC00704700BF00E100E00138B0F1807F0DD2EC
:101A0C0030B4F02500220721054B064C586084F8B1
:101A1C002350104630BC9A60196070470120704703
:101A2C0010E000E000ED00E02DE9F04F6E4F804635
:101A3C00387E83B0012800F0AB809A46012389469A
:101A4C0093463B76FFF77EFF684C4CF250360546CA
:101A5C0005E0FFF777FF401BB04200F29D80E36882
:101A6C00D807F6D4E368990644BF2023E3605F4BA4
:101A7C00DA68D2066DD4DA69D6076AD4DB685D07FA
:101A8C0067D4B8F1010F00F0AB80B8F1020F14BFAE
:101A9C000423022301934FF000084CF25036534CB0
:101AAC0000204FEA0812C2F12001F8610AFA01F194
:101ABC002BFA02F3203A0B432AFA02F22169134360
:101ACC009BB241F001012161A9F80030FFF73AFF08
:101ADC00054604E0FFF736FF401BB04278D8E368B8
:101AEC00D907F7D4E3689A0644BF2023E360E36880
:101AFC00DB0606D4E369DD0703D4E06810F00400CC
:101B0C0057D03A4BDB6813F0100367D0FB691421F4
:101B1C0043F00203FB611023344AD268500704D50A
:101B2C000B46FA6942F00102FA61304AD169C907E1
:101B3C0007D5F96941F00401F961D16921F001017E
:101B4C00D1612A4A0120D360136923F00103136188
:101B5C0023E0264BDB6813F0100323D10421234A26
:101B6C00D268540704D50B46FA6942F00102FA61B7
:101B7C001E4AD169C80707D5F96941F00401F9611A
:101B8C00D16921F00101D161184A0120D36004E030
:101B9C00022003B0BDE8F08F032000233B7603B096
:101BAC00BDE8F08FFB69142143F00203FB611023A5
:101BBC00D5E7236908F1010823F001032361019B98
:101BCC005FFA88F2934209F102093FF669AFE4E744
:101BDC002369032023F001032361DEE704219BE743
:101BEC00CDF8048057E700BF1015002000200240FC
:101BFC00064B186910F0800006D00549054A59605B
:101C0C005A601869C0F3C010704700BF0020024032
:101C1C0023016745AB89EFCD034A0020136943F0DC
:101C2C0080031361704700BF0020024070B504466A
:101C3C00FFF788FE0646294D601C31D1274AD36830
:101C4C00D907FCD4254BDA68960644BF2022DA600B
:101C5C00224BDA68D50602D4DA69D40733D51F4B88
:101C6C00DB6813F0100326D104211C4AD2685007FC
:101C7C0005D50B461A49CA6942F00102CA61174AD6
:101C8C00D169C90708D51648C16941F00401C16181
:101C9C00D16921F00101D1610120104AD36070BDDE
:101CAC00EB68DB07CED524B1FFF74CFE801BA042BE
:101CBC00C2D9032070BD0A481421C269102342F016
:101CCC000202C261D1E7D86810F00400E7D0034BE0
:101CDC00DB6813F01003C7D0EDE700BF0020024013
:101CEC00101500202DE9F843DFF8C09099F8183052
:101CFC00012B56D0012203680646022B884689F830
:101D0C0018204CF250302FD0FFF790FF78BB4FF0DB
:101D1C00FF33C8F80030D6E9025305EB83239D420C
:101D2C0025D20746204C07E0D6E9023205F580653E
:101D3C0003EB8223AB421BD9C9F81C7023694CF20C
:101D4C00503043F0020323616561236943F0400383
:101D5C002361FFF76BFF236923F002032361002843
:101D6C00E2D0C8F8005003E0FFF760FF28B1012073
:101D7C00002389F81830BDE8F8830B4CC9F81C0017
:101D8C0023694CF2503043F004032361236943F080
:101D9C0040032361FFF74AFF236923F00403236107
:101DAC00E6E70220BDE8F883002002401015002071
:101DBC002DE9F04F4FF0000883B04446DFF8C0C166
:101DCC00694EDFF8C0E102E00134102C78D0012319
:101DDC000A68A3401A409342F6D14D68122D00F0C8
:101DEC009C807ED8022D00F0948074D9032D00F0D5
:101DFC008D80112D02D1CB6803F10408FF2A62D823
:101E0C0082460368A5004FF00F0909FA05FB23EA87
:101E1C000B0308FA05F52B43CAF80030D1F804A0DF
:101E2C001AF0805FD0D0514F24F00305BB6905F147
:101E3C00804543F00103BB61BB6905F5803503F0B8
:101E4C000103019304F0030B019B4FEA8B0BAB686E
:101E5C0009FA0BF9604523EA09030FD0704560D0ED
:101E6C00434FB84278D0434FB8420CBF4FF00309F0
:101E7C004FF0040909FA0BFB43EA0B03AB60336820
:101E8C001AF4803F14BF13439343336073681AF4FE
:101E9C00003F14BF134393437360B3681AF4801F5D
:101EAC0014BF13439343B360F3681AF4001F04F197
:101EBC00010414BF1A4323EA0202102CF26086D1EB
:101ECC0003B0BDE8F08F04F18045083D4368AD00D8
:101EDC0000F1040A97E7A5B1012D8FD1D1F80C8040
:101EEC008CE7254FBD420CD029D9244FBD4208D0D8
:101EFC0007F58037BD4204D0DFF88C904D457FF458
:101F0C007DAF8D68A5B94FF0040877E74FF0000856
:101F1C0074E7CB6803F1080870E7CB6803F10C0891
:101F2C006CE74FF0010909FA0BFB43EA0B03A5E739
:101F3C00012D0CBF036143614FF008085EE7DFF829
:101F4C004C904D45DDD009F580394D457FF456AFA9
:101F5C008D68002DD7D0EBE74FF0020909FA0BFB87
:101F6C0043EA0B038AE700BF000401400010024063
:101F7C00001001400014014000002110000031103D
:101F8C0000080140000C014000002210000011105C
:101F9C0002B9090401617047002800F0B2812DE9F3
:101FAC00F04F90F8293487B0044603F0FF02002B61
:101FBC0000F0A2814FF0030926466D4684F829945F
:101FCC00206801F0E1F856F8107B04F1040A0FCEFA
:101FDC000FC5336838462B609AE80E0001F0C2F842
:101FEC000021206801F0DAF84FF48073238540F269
:101FFC000113A4F848304FF48173A4F8683040F210
:10200C000313A4F888304FF48273A4F8A83040F27C
:10201C000513A4F8C8304FF483730025A4F8E830F6
:10202C0040F2071384F82B50C4E90E55256484F84C
:10203C004B50C4E91655256684F86B50C4E91E55FF
:10204C00C4F8805084F88B50C4E92655C4F8A050CD
:10205C0084F8AB50C4E92E55C4F8C05084F8CB506A
:10206C00C4E93655C4F8E05084F8EB50C4E93E5549
:10207C00A4F808314FF48473A4F8283140F2091302
:10208C00A4F848314FF48573A4F8683140F20B136F
:10209C00A4F888314FF48673A4F8A83140F20D13DC
:1020AC00C4F8005184F80B51C4F81851C4F81C51F1
:1020BC00C4F8205184F82B51C4F83851C4F83C5161
:1020CC00C4F8405184F84B51C4F85851C4F85C51D1
:1020DC00C4F8605184F86B51C4F87851C4F87C5141
:1020EC00C4F8805184F88B51C4F89851C4F89C51B1
:1020FC00C4F8A05184F8AB51C4F8B851C4F8BC5121
:10210C00C4F8C051A4F8C831A4F88892A4F89490EB
:10211C004FF002094FF00108A4F86892A4F87490EB
:10212C004FF487734FF00409A4F8E83184F8CB51CD
:10213C00C4F8D851C4F8DC51C4F8E05184F8EB5120
:10214C00C4F8F851C4F8FC51C4F80052A4F8285251
:10215C00A58684F82B52C4F83852C4F83C52C4F803
:10216C00405284F84B52C4F85852C4F85C52C4F82C
:10217C00605284F86B52C4F87852C4F87C52C4F89C
:10218C00805284F88B52C4F89852C4F89C52A4F82C
:10219C004882A4F85480C4F8A052A4F8A892A4F8D9
:1021AC00B4904FF00509A4F8C892A4F8D4904FF05D
:1021BC000609A4F8E892A4F8F4904FF007094FF040
:1021CC00090B4FF00A0E0B200C210D222746A4F808
:1021DC000893A4F814914FF00E034FF00809EC4645
:1021EC0084F8AB52C4F8B852C4F8BC52C4F8C0520C
:1021FC0084F8CB52C4F8D852C4F8DC52C4F8E0527C
:10220C0084F8EB52C4F8F852C4F8FC52C4F80053EA
:10221C0084F80B53C4F81853C4F81C53C4F8205357
:10222C0084F82B53C4F83853C4F83C53C4F84053C7
:10223C00A4F82893A4F83491A4F848B3A4F854B1A2
:10224C0084F84B53A4F868E3A4F874E1A4F8880369
:10225C00A4F89401A4F8A813A4F8B411A4F8C82302
:10226C00A4F8D421A4F8E833A4F8F431C4F85853F2
:10227C00C4F85C53C4F8605384F86B53C4F87853B7
:10228C00C4F87C53C4F8805384F88B53C4F8985327
:10229C00C4F89C53C4F8A05384F8AB53C4F8B85397
:1022AC00C4F8BC53C4F8C05384F8CB53C4F8D85307
:1022BC00C4F8DC53C4F8E05384F8EB53C4F8F85377
:1022CC00C4F8FC53C4F8005457F810EB0FCFACE82B
:1022DC000F0033687046CCF800309AE80E0000F01E
:1022EC005FFF84F82450206884F8298401F028FBCF
:1022FC00284607B0BDE8F08F80F82824FEF7A6FC2E
:10230C0058E60120704700BF90F82834012B10D0FC
:10231C00012110B5044680F82814FEF7C5FD20688D
:10232C0001F00CFB206800F025FF002084F8280445
:10233C0010BD0220704700BF2DE9F04F044683B05A
:10234C00006801F0FFFA020445D42268104601F03F
:10235C00F9FA460500F18481206801F0F3FA10F4D3
:10236C00804F206807D0B0F8443023F480431B041E
:10237C001B0CA0F8443001F0E5FA10F4005F206863
:10238C0007D0B0F8443023F400531B041B0CA0F806
:10239C00443001F0D7FAC50400F14481206801F003
:1023AC00D1FA000500F11F81206801F0CBFA8205FB
:1023BC0000F10C81206801F0C5FAC30508D522682C
:1023CC00B2F8443023F480731B041B0CA2F8443085
:1023DC0003B0BDE8F08F00232268DFF8DC94DFF84F
:1023EC00DCA4DFF8DCB4ADF80430ADF80630B2F89C
:1023FC0044309BB21F04ADF80430A7D5BDF804508F
:10240C0015F00F054FD1BDF80410138811F0100111
:10241C0000F044819BB2ADF80630BDF806301B05C8
:10242C0000F1A081BDF806301F04E0D540F68F7393
:10243C0011880B401380B2F8503094F8281203EB3B
:10244C00C10302EB4303D3F80C34C3F30903C4F800
:10245C004432002B40F0128220460021FEF71CFC77
:10246C002268D4F83802B2F850303E2802F5806564
:10247C0003F1060340F2E081C0F34F11C60604BF1E
:10248C0001F1FF3189B24BEA812189B245F8131071
:10249C0013880AEA030383F4405343F4004343F0E4
:1024AC0080031380A3E732F825309BB2ADF80630D9
:1024BC00BDF8063019043CD4BDF806301B0696D581
:1024CC0032F825306E0109EA030322F82530A119F0
:1024DC0091F8323002F58060002B40F01E81B2F88A
:1024EC00503091F8287003EBC703023350F81330C7
:1024FC00C3F309034B64002B40F07C812644B2F8F3
:10250C00503096F82850F16B03EBC503023350F8AA
:10251C001330356CC3F3090319447364F163002D54
:10252C0040F0E38096F828102046FEF7BDFB2268A9
:10253C005DE740F68F7332F825106E010B4022F8E0
:10254C00253004EB060898F8323202F58060002B37
:10255C0000F0288198F8283232F8237002EB8301BE
:10256C0017F4804FB2F850704FEAC3033B4400F0AD
:10257C004D81023350F81370C7F30907002F40F058
:10258C00958140F60F730A88134043F4004343F0DF
:10259C00C0030B802644D6F84432D6F83C22D6F839
:1025AC0040023B443A44C6F84432C6F83C22002868
:1025BC0000F02981D6F8383296F828129F4280F024
:1025CC0046812046FEF768FB226875E722682046A4
:1025DC00B2F8443023F400731B041B0CA2F84430F3
:1025EC00FEF76AFBE6E62368B3F84020184642F093
:1025FC000802A3F84020B3F8442022F4006212042D
:10260C00120CA3F84420B3F8402042F00402A3F8C3
:10261C00402001F097F9C1043FF5C6AE2046FEF705
:10262C005DFBC1E622682046B2F8403023F004037B
:10263C001B041B0CA2F84030B2F8403023F0080306
:10264C001B041B0CA2F84030FEF758FB2068B0F8B6
:10265C00443023F480531B041B0CA0F844309EE63A
:10266C0022682046B2F8443023F480631B041B0C10
:10267C00A2F84430FEF724FB94F82834012B3FF4E5
:10268C006BAE0025012384F8245084F828342946A5
:10269C00206801F04DF984F828545DE609EA03033B
:1026AC001380B2F8500094F82850E36B00EBC5008F
:1026BC0002EB4002D2F804242046C2F30902134470
:1026CC00E3636264FEF7F0FA94F824301BB3236CD6
:1026DC002268002B7FF48BAE94F8241041F080011B
:1026EC00A2F84C1084F8243081E64FF0000C01273E
:1026FC0096F82860104606F07F067201A31828325F
:10270C00C3E90F1583F82860A118C3F844C083F8F7
:10271C00297000F099FF226869E691F8283004EBE3
:10272C00451532F82370DB0017F0400FB2F85070EB
:10273C003B444ED1063350F81330C3F309036B649A
:10274C00002B40F0AA8040F60F73A11991F82810C5
:10275C0032F821502B4043F4404343F0800322F8DD
:10276C002130CBE6B2F8503094F82812104603EB27
:10277C00C10302EB4302D2F80C3404F22C41C3F334
:10278C000903B4F82C22C4F8443201F0EFF840F6F7
:10279C008F732268204611880B401380FEF776FA5F
:1027AC00226824E6B2F8503098F8281203EBC103E3
:1027BC00063350F81370C7F30907002F3FF4EAAE45
:1027CC0010463B46B8F82C22D8F83C1201F0CEF853
:1027DC00E0E6023350F81330C3F309036B64002BAB
:1027EC00B1D01046CA8DC96B01F0B2F8226802F55F
:1027FC008060A8E710468A8DC96B01F0A9F82268A1
:10280C0002F580607AE696F82812DAE6063350F87C
:10281C001370C7F30907002F3FF4B3AE3B461046C5
:10282C00B8F83022D8F83C1201F0A0F898F8283209
:10283C00216801EB8301A4E6C0F34F01C00744BF3C
:10284C00013189B2890289B245F8131020E60027BC
:10285C0001F07F014E01A31906F50A7683F82812C0
:10286C00C3F83C22C3F84002A119C3F8447283F8A0
:10287C002972206800F0E8FE22681DE61046D4F8A4
:10288C003C12B4F82C2201F071F8D4F83C32D4F894
:10289C0044221344C4F83C32DEE510460A8EC96B60
:1028AC0001F056F8226802F580604CE710463B4672
:1028BC00B8F82E22B6E700BF0F8FFFFF8FBFFFFFC8
:1028CC000080FFFF90F82824012A0DD010B5044693
:1028DC00012284F8241080F82824006801F028F8DC
:1028EC00002084F8280410BD0220704738B54CB283
:1028FC00002C01F07F05B5BF00EB451100EB411139
:10290C00283101F50A71E40F4C700D70CB7090F802
:10291C0028340A61012B0AD00123044680F828349C
:10292C00006800F057FC002084F8280438BD022011
:10293C0038BD00BF4BB2002B01F07F02B5BF00EBDE
:10294C00421100EB4111283101F50A71DB0F4B707C
:10295C000A7090F82834012B0BD0012310B50446D3
:10296C0080F82834006800F0A1FD002084F82804C9
:10297C0010BD0220704700BF70B5002601F07F012A
:10298C004D01441905F50A7584F82812C4F83C2247
:10299C004119C4F840320068C4F8446284F82962D2
:1029AC0000F052FE304670BD01F00F0100EB4111FA
:1029BC00B1F84402704700BFF8B50026012701F0BA
:1029CC007F014D014419283584F82810C4E90F23E0
:1029DC004119006884F82970666400F035FE3046B1
:1029EC00F8BD00BF012238B54BB2002B01F07F05BA
:1029FC00B5BF00EB451100EB4111283101F50A710F
:102A0C00DB0F4B700D708A7090F82834934213D002
:102A1C00044680F82824006800F010FF1DB1002047
:102A2C0084F8280438BD04F22C41206800F08EFF95
:102A3C00002084F82804F5E7022038BD38B50025BD
:102A4C004BB2002B01F07F02B5BF00EB421100EB43
:102A5C004111283101F50A71DB0F4B700A708D7032
:102A6C0090F82834012B0AD00123044680F828342E
:102A7C00006800F015FF84F82854284638BD022061
:102A8C0038BD00BF11F0800F0DD001F07F0100EBBD
:102A9C004110283099B26AB101221B0C0381C1800C
:102AAC0082720020704700EB411000F50A7099B259
:102ABC00002AF1D181808272002070472DE9F0410B
:102ACC00036882B0DD07044630D5AB494A6802F092
:102ADC000C02042A00F0DA804A6802F00C02082A80
:102AEC0000F0D0806368B3F5803F00F00F81002BBD
:102AFC0000F02781B3F5A02F00F0B5819E4B1A682A
:102B0C0022F480321A601A6822F480221A60FEF7CE
:102B1C0019FF994D064605E0FEF714FF801B64284B
:102B2C0000F20B812B689A03F6D523689F0728D5F2
:102B3C00914A516811F00C0F00F0B680516801F009
:102B4C000C01082900F0AC802369002B00F04181B6
:102B5C0001228A4B884D1A60FEF7F4FE064605E00A
:102B6C00FEF7F0FE801B022800F2E7802B68980726
:102B7C00F6D52B68626923F0F80343EAC2032B6095
:102B8C0023681A0722D5A369002B00F09880012234
:102B9C007B4B794D1A60FEF7D5FE064605E0FEF735
:102BAC00D1FE801B022800F2C8806B6A9B07F6D509
:102BBC00744B754A1B68A2FB03235B0A019300BF8D
:102BCC00019B5A1E0192002BF9D123685D0739D560
:102BDC00694BDA69D00040F1828000256B4B1A6892
:102BEC00D10540F19980E368012B0FD0002B00F048
:102BFC00D180052B604B1A6A00F0FC8022F0010298
:102C0C001A621A6A22F004021A6204E05A4A136A1F
:102C1C0043F001031362FEF795FE574E804641F2D6
:102C2C00883706E0FEF78EFEA0EB0800B84200F2F3
:102C3C008480336A9B07F5D525B14F4AD36923F0BD
:102C4C008053D361E269CAB14B4D696801F00C0144
:102C5C00082930D0022A4FF000014D4A00F0D280F2
:102C6C001160FEF76FFE2C46054604E0FEF76AFE87
:102C7C00401B022861D823689B01F7D4002002B0C6
:102C8C00BDE8F0814A68D0037FF52CAF3A4A126850
:102C9C0091037FF54BAF6268002A7FF447AF0AE0DF
:102CAC005268D6033FF550AF334A1268950721D5C9
:102CBC002269012A1ED0012002B0BDE8F081304A01
:102CCC002D4D1360FEF73EFE064604E0FEF73AFE7D
:102CDC00801B022831D86B6A9F07F7D475E7DA6935
:102CEC00012542F08052DA61DB6903F080530093D6
:102CFC00009B73E7204960690A6822F0F80242EAF7
:102D0C00C0020A601A077FF561AF3CE71A4A1368E4
:102D1C0043F480331360FAE61A681E4642F480725C
:102D2C001A60FEF70FFE07463368DA053FF55BAF16
:102D3C00FEF708FEC01B6428F6D9032002B0BDE8DC
:102D4C00F08103F1804303F504331A681D4622F425
:102D5C0080321A601A6822F480221A60FEF7F2FDA3
:102D6C00064604E0FEF7EEFD801B6428E5D82B68D0
:102D7C009B03F7D4D9E600BF00100240000042428A
:102D8C008004424200000020D34D621000700040CD
:102D9C006000424203F1804303F504331A6A1E4675
:102DAC0022F001021A621A6A41F2883822F00402F7
:102DBC001A62FEF7C7FD074604E0FEF7C3FDC01B11
:102DCC004045BAD8336A9807F7D4002D3FF43AAF90
:102DDC0033E72B4A2B4D1360FEF7B4FD064604E097
:102DEC00FEF7B0FD801B0228A7D82B689907F7D4F3
:102DFC002368C6E642F004021A621A6A42F0010223
:102E0C001A6208E71160FEF79DFD064604E0FEF726
:102E1C0099FD801B022890D82B689901F7D4226A5F
:102E2C00B2F5803F05D16B68A16823F400330B43E6
:102E3C006B600125134B606A5968024321F47411CD
:102E4C0011480A435A6005601C46FEF77BFD054697
:102E5C0005E0FEF777FD401B02283FF66EAF2368B6
:102E6C009A01F6D50AE703F18043A3F53C331A68BF
:102E7C0042F480221A601A6842F480321A6046E6E4
:102E8C000000424200100240600042426A4A13684D
:102E9C0003F007038B420BD2136823F007030B4399
:102EAC001360136803F007038B4201D001207047B5
:102EBC002DE9F041036886B09D0714D55C0704D555
:102ECC005E4C626842F4E06262601A0704D55B4CA7
:102EDC00626842F460526260584C8568626822F005
:102EEC00F0022A436260DB0704460E4625D5426891
:102EFC00524B012A1B6800F09980022A00F0928044
:102F0C0098072AD54D4D41F288386B6823F003039E
:102F1C0013436B60FEF716FD63680746012B64D004
:102F2C00022B06D16CE0FEF70DFDC01B404500F2F4
:102F3C0081806B6813F00C0FF5D13F4A136803F0D6
:102F4C000703B3420DD9136823F00703334313600F
:102F5C00136803F00703B34203D0012006B0BDE8A9
:102F6C00F0812368590706D53449E0684A6822F491
:102F7C00E06202434A601A0707D5304A2169536858
:102F8C0023F4605343EAC103536040F201222C4BFB
:102F9C0006ACADF804200FCB04E90F0027494A68B2
:102FAC0002F00C03082B10D0264B244A26485268FA
:102FBC002649C2F30312825C0020D3400B60FEF75B
:102FCC0081FC002006B0BDE8F081C2F383432344AA
:102FDC0013F8100CD30319D41D4B03FB00F3E4E7D7
:102FEC00FEF7B0FCC01B404524D86B6803F00C0303
:102FFC00042BF5D1A1E7FEF7A5FCC01B404519D861
:10300C006B6803F00C03082BF5D196E74A680D4B5F
:10301C00C2F3404203FB00F3224412F8142CB3FB1E
:10302C00F2F3C2E79D013FF56DAF96E79F033FF5C5
:10303C0069AF92E7032091E70020024000100240A4
:10304C00503A000800127A00103A000800000020E4
:10305C0000093D00014B1868704700BF00000020BC
:10306C002DE9F0410446006882B0C5072AD53A4BD9
:10307C00DA69D1003DD5394B00251A68D20546D501
:10308C00354960680A6A12F440720FD000F440733C
:10309C0093420BD0012700260B6A314A23F440706F
:1030AC00176016600862D80745D460682A4A136A0C
:1030BC0023F44073034313621DB1D36923F080538F
:1030CC00D3612068830706D5234AA168536823F48B
:1030DC0040430B43536010F0100007D000201E4AF1
:1030EC00E168536823F480030B43536002B0BDE8DE
:1030FC00F081DA69012542F08052DA61DB6903F074
:10310C0080530193019B154B1A68D205B8D41A68E9
:10311C001E4642F480721A60FEF714FC07463368B0
:10312C00DB05ADD4FEF70EFCC01B6428F7D90320D9
:10313C0002B0BDE8F0810E46FEF704FC41F2883780
:10314C008046336A9A07B0D4FEF7FCFBA0EB08006C
:10315C00B842F6D9EBE700BF001002400070004007
:10316C004004424284B001A880E80E0004B0002064
:10317C00704700BF0246B0F84030002043F43F4394
:10318C00A2F84030704700BF44F2FF230246B0F86B
:10319C00401000200B40A2F84030704700207047D0
:1031AC0084B070B4044601250020A4F84050A4F863
:1031BC004000A4F84400A4F85000B4F8406004ADFA
:1031CC0046F43F46A4F8406085E80E0070BC04B09D
:1031DC00704700BF70B40B78CA7800EB8304032AE5
:1031EC0010D8DFE812F00400290135011D0130F878
:1031FC002340AA4A224042F4007220F823200B7884
:10320C0000EB830440F60F75228800F580662A4097
:10321C00134343F4004343F0800323808B7A6BBB4E
:10322C008A880B784C7852085200DB00002C00F096
:10323C00BC80B0F85040234446F813200C7830F88A
:10324C00243000EB84025E060BD530F824301D4090
:10325C0045F4004545F0C00520F824500A7800EBF1
:10326C00820211888E4B002070BC0B4083F020032F
:10327C0043F4004343F080031380704740F60F6320
:10328C000A7830F82240234043F4014343F0800392
:10329C0020F82230CB88B0F850200C785B0802EB79
:1032AC00C4025B0046F81230B0F850300A890C7832
:1032BC000433520803EBC403520046F813200A7877
:1032CC004B7830F82240002B3ED1660400EB820391
:1032DC000BD530F822301D4045F4404545F08005B3
:1032EC0020F822500B7800EB83031A8855060BD577
:1032FC0040F60F721C88224042F4004242F0C00299
:10330C001A800B7800EB830340F60F7248F28004AE
:10331C001D882A4042F4004242F0C0021A800A780A
:10332C00604B30F822502B4083F44053234320F859
:10333C0022300A785A4B30F822100B401C4320F8EC
:10334C002240002070BC7047640400EB82030BD554
:10335C0030F822301D4045F4404545F0800520F8FA
:10336C0022500B7800EB83031A8852067AD440F66D
:10337C000F7248F280041D882A4042F4404242F009
:10338C0080021A800A78464B30F822502B40234397
:10339C0020F822300A78434B30F822100B401C43A3
:1033AC0020F82240002070BC7047B0F85050B0F8A4
:1033BC0050402B44043346F813200A690D78A31DA2
:1033CC003E2A03EBC5035AD8C2F34F04D20744BFBD
:1033DC000134A4B2A402A4B246F813400C7830F81D
:1033EC00243000EB84025B040DD540F60F7330F8EB
:1033FC002420134043F4404343F0800320F824304E
:10340C000A7800EB82021188264B002070BC0B401E
:10341C0083F4405343F4004343F08003138070471C
:10342C0030F823401D4A224042F4C06220F8232089
:10343C000B7800EB8304E5E630F82340174A224072
:10344C0042F4806220F823200B7800EB8304D9E649
:10345C0030F82340114A224020F823200B7800EB4F
:10346C008304CFE640F60F721C88224042F40042DF
:10347C0042F0C0021A800B7800EB830377E7C2F3AB
:10348C004F14D50604BF04F1FF3294B2064A42EA47
:10349C00842292B246F81320A0E700BF8F89FFFF69
:1034AC00BF8FFFFF8FBFFFFF0080FFFF30B40A7894
:1034BC008D7A00EB82034C780DBB002C00F09380CE
:1034CC0030F8224064060DD540F60F7330F82240D8
:1034DC00234043F4004343F0C00320F822300B7820
:1034EC0000EB83031A88002030BC22F0C0021205C6
:1034FC00120D42F4004242F080021A807047002CF8
:10350C003ED130F8224064040DD540F60F7330F8EC
:10351C002240234043F4404343F0800320F8223000
:10352C000B7800EB83031A8855060BD540F60F7207
:10353C001C88224042F4004242F0C0021A800B78F0
:10354C0000EB830340F60F7248F280041D882A407A
:10355C0042F4004242F0C0021A800A78384B30F82C
:10356C0022502B40234320F822300A78354B30F878
:10357C0022100B401C4320F82240002030BC704726
:10358C0030F8224064040DD540F60F7330F8224019
:10359C00234043F4404343F0800320F822300B785F
:1035AC0000EB83031A8852063CD440F60F7248F2A3
:1035BC0080041D882A4042F4404242F080021A8066
:1035CC000A78204B30F822502B40234320F822302D
:1035DC000A781B4B30F822100B401C4320F8224079
:1035EC00002030BC704730F8224065040DD540F601
:1035FC000F7330F82240234043F4404343F08003E0
:10360C0020F822300B7800EB83031A88002030BCA2
:10361C0022F0F0029204920C42F4004242F080023A
:10362C001A80704740F60F721C88224042F4004208
:10363C0042F0C0021A800B7800EB8303B5E700BFA1
:10364C008FBFFFFFBF8FFFFFF0B44C788D69012C4B
:10365C000B6958D09D4292BF0022EA1A1D468B7A04
:10366C008A610A783BBBB0F850303E2D03F106035B
:10367C0000F5806403EBC20240F2A180C5F34F1643
:10368C00EF0604BF06F1FF339EB2694B43EA862373
:10369C009BB244F812300A7830F82210654BF0BC1B
:1036AC000B4083F4405343F4004343F0800320F871
:1036BC00223000207047002CEED1B0F850303E2D57
:1036CC0003F1020300F5806403EBC20240F2948024
:1036DC00C5F34F16EF0604BF06F1FF339EB2544BF1
:1036EC0043EA86239BB244F812304E78002E40F009
:1036FC009180B0F850200D78063202EBC50244F8E8
:10370C0012300A78C8E79D4286BFEA1A1D4600228D
:10371C00ABB28C7A01338A615B104E6900F5806222
:10372C00ACB98C8802EB44042BB136F8027B013B1C
:10373C0024F8047BF9D1B0F850300C78023303EB49
:10374C00C40342F813500A7800EB82022AE00C788A
:10375C0030F82470B0F850C07F064FEAC4044CBF58
:10376C000F89CF886444023442F8145002EB4702AC
:10377C002BB136F8024B013B22F8044BF9D10C78F3
:10378C004B7800EB840233BB40F60F7330F82420E7
:10379C00134043F4004343F0C00320F824300A786C
:1037AC0000EB82021188244B0020F0BC0B4083F00C
:1037BC00300343F4004343F0800313807047C5F398
:1037CC004F03ED0744BF01339BB29B029BB244F8FD
:1037DC0012300A7860E7012BE4D140F60F7330F811
:1037EC002420134043F4404343F0800320F824305A
:1037FC000A7800EB8202D5E7C5F34F03EE0744BF0E
:10380C0001339BB29B029BB244F812304E78002ECF
:10381C003FF46FAF012E0A787FF43EAFB0F8503012
:10382C00023303EBC20244F812500A7834E700BFAB
:10383C000080FFFF8FBFFFFFBF8FFFFF0B78DBB157
:10384C004A7830F823105AB9124A0A4082F480524E
:10385C0042F4004242F0800220F8232000207047FE
:10386C000D4A0A4082F0100242F4004242F08002FB
:10387C0020F82320002070470288084B134083F463
:10388C00805383F0100343F4004343F08003038020
:10389C00002070478FBFFFFFBF8FFFFFBFBFFFFF31
:1038AC0010B40B784C7800EB8302F4B130F8234061
:1038BC0064060DD540F60F7230F82340224042F4D6
:1038CC00004242F0C00220F823200A7800EB82026A
:1038DC001188154B00200B4083F0300343F4004358
:1038EC0043F08003138010BC704730F8234064040D
:1038FC000DD540F60F7230F82340224042F440427E
:10390C0042F0800220F823200A7800EB8202118812
:10391C00064B00200B4083F4405343F4004343F028
:10392C008003138010BC7047BF8FFFFF8FBFFFFF5A
:10393C0011B98023A0F84C3000207047002070474C
:10394C0000207047B0F84400704700BF002070475B
:10395C00013300F580605B1000EB420205D031F8BA
:10396C00020B013B22F8040BF9D17047013300F52F
:10397C0080605B1000EB420206D01068013B02F144
:10398C00040221F8020BF8D1704700BF002103E0BC
:10399C000B4B5B58435004310A480B4B42189A426C
:1039AC00F6D30A4A02E0002342F8043B084B9A4241
:1039BC00F9D3FCF787FDFCF7C3FBFCF737FC70472A
:1039CC00C03A0008000000206402002068020020B9
:1039DC0030150020FEE710B5431E0A44914200D179
:1039EC0010BD11F8014B03F8014FF7E7F8B500BF14
:1039FC00F8BC08BC9E467047F8B500BFF8BC08BCC4
:043A0C009E4670471B
:103A1000000000000000000001020304060708097E
:103A20000000000001020304791F0000790B31003F
:103A300001021121314363738292790079310000D0
:103A400079000000790104107900000000020102F1
:103A500002030405060708090A0B0C0D0E0F1010CF
:103A600053544D6963726F656C656374726F6E69F0
:103A70006373000053544D3332205669727475617C
:103A80006C20436F6D506F72740000003030303026
:103A900030303030303031410000000043444320AA
:103AA000436F6E666967000043444320496E746546
:083AB00072666163650000000D
:043AB80031010008D0
:043ABC000D010008F0
:103AC00000A24A047900000000000000000000008D
:103AD00000000000000000000000000000000000E6
:103AE00000000000000000000000000000000000D6
:103AF00000000000000000000000000000000000C6
:103B000000000000000000000000000000000000B5
:103B100000000000000000000000000000000000A5
:103B20000000000000000000000000000000000095
:103B30000000000000000000000000000000000085
:103B40000000000000000000000000000000000075
:103B50000000000000000000000000000000000065
:103B60000000000000000000000000000000000055
:103B70000000000000000000000000000000000045
:103B80000000000000000000000000000000000035
:103B90000000000000000000000000000000000025
:103BA0000000000000000000000000000000000015
:103BB0000000000000000000000000000000000005
:103BC0000000000000000000610500085905000821
:103BD0005D050008A5050008120100020202004070
:103BE000830440570002010203010000040309049A
:103BF000B90E0008C50E0008D10E0008ED0E000831
:103C0000090F0008250F0008410F000809024300B2
:103C1000020100C032090400000102020100052473
:103C200000100105240100010424020205240600FD
:103C3000010705820308001009040100020A0000C0
:103C40000007050102400000070581024000000056
:103C500009024300020100C032090400000102020F
:103C600001000524001001052401000104240202C2
:103C7000052406000107058203080010090401005D
:103C8000020A000000070501020002000705810288
:103C90000002000009074300020104C032090400C9
:103CA00000010202010005240010010524010001A9
:103CB000042402020524060001070582030800FF10
:103CC00009040100020A000000070501024000008B
:103CD00007058102400000000A06000200000040C3
:103CE00001000000B5170008791700080D1700083B
:103CF00000000000811600086D160008DD1600089F
:103D0000000000000000000000000000B9160008DC
:103D1000AD160008C5160008D11600080100000005
:043D2000100000008F
:04000005080039991D
:00000001FF
